{
  "contractName": "Votaciones",
  "abi": [
    {
      "constant": false,
      "inputs": [
        {
          "internalType": "int256",
          "name": "_number",
          "type": "int256"
        }
      ],
      "name": "push",
      "outputs": [],
      "payable": false,
      "stateMutability": "nonpayable",
      "type": "function"
    },
    {
      "constant": true,
      "inputs": [],
      "name": "get",
      "outputs": [
        {
          "internalType": "int256[]",
          "name": "",
          "type": "int256[]"
        }
      ],
      "payable": false,
      "stateMutability": "view",
      "type": "function"
    }
  ],
  "bytecode": "0x608060405234801561001057600080fd5b5061027e806100206000396000f3fe608060405234801561001057600080fd5b50600436106100365760003560e01c806335c457db1461003b5780636d4ce63c14610057575b600080fd5b61005560048036036100509190810190610111565b610075565b005b61005f6100a4565b60405161006c91906101bf565b60405180910390f35b600081908060018154018082558091505090600182039060005260206000200160009091929091909150555050565b606060008054806020026020016040519081016040528092919081815260200182805480156100f257602002820191906000526020600020905b8154815260200190600101908083116100de575b5050505050905090565b60008135905061010b81610224565b92915050565b60006020828403121561012357600080fd5b6000610131848285016100fc565b91505092915050565b600061014683836101b0565b60208301905092915050565b600061015d826101f1565b6101678185610209565b9350610172836101e1565b8060005b838110156101a357815161018a888261013a565b9750610195836101fc565b925050600181019050610176565b5085935050505092915050565b6101b98161021a565b82525050565b600060208201905081810360008301526101d98184610152565b905092915050565b6000819050602082019050919050565b600081519050919050565b6000602082019050919050565b600082825260208201905092915050565b6000819050919050565b61022d8161021a565b811461023857600080fd5b5056fea365627a7a723158202d688bda6a509c672474a02a5938a2ce1b2590568fd28e324f30eb1d0ebc1c1d6c6578706572696d656e74616cf564736f6c63430005100040",
  "source": "//pragma solidity ^0.5.16;\n//pragma solidity >=0.5.0 <0.7.5;\npragma experimental ABIEncoderV2;\npragma solidity >=0.5.0 <0.6.0;\n\ncontract Votaciones {\n\n    enum Estado {Creada, Abierta, Cerrada }\n \n    \n    int[] balance;\n\nfunction push(int _number) public{\n   balance.push(_number);     \n} \n\nfunction get () public view returns (int [] memory){\n\treturn balance;\n}\n\n}\n\n",
  "sourcePath": "/home/vagrant/project/contracts/Votaciones.sol",
  "compiler": {
    "name": "solc",
    "version": "0.5.16+commit.9c3226ce.Emscripten.clang"
  },
  "schemaVersion": "3.3.3",
  "updatedAt": "2021-01-24T17:02:43.640Z",
  "networkType": "ethereum",
  "devdoc": {
    "methods": {}
  },
  "userdoc": {
    "methods": {}
  }
}