{
  "contractName": "Votaciones",
  "abi": [
    {
      "constant": false,
      "inputs": [],
      "name": "crearVotacion",
      "outputs": [
        {
          "name": "",
          "type": "uint256"
        }
      ],
      "payable": false,
      "stateMutability": "nonpayable",
      "type": "function",
      "signature": "0x9511b5df"
    },
    {
      "constant": false,
      "inputs": [
        {
          "name": "id_votacion",
          "type": "uint256"
        },
        {
          "name": "nombre_candidato",
          "type": "string"
        }
      ],
      "name": "addCandidato",
      "outputs": [],
      "payable": false,
      "stateMutability": "nonpayable",
      "type": "function",
      "signature": "0x8f5a1e48"
    },
    {
      "constant": false,
      "inputs": [
        {
          "name": "id_votacion",
          "type": "uint256"
        }
      ],
      "name": "cerrarLista",
      "outputs": [],
      "payable": false,
      "stateMutability": "nonpayable",
      "type": "function",
      "signature": "0x53f915b3"
    },
    {
      "constant": false,
      "inputs": [
        {
          "name": "id_votacion",
          "type": "uint256"
        }
      ],
      "name": "cerrarEncuesta",
      "outputs": [],
      "payable": false,
      "stateMutability": "nonpayable",
      "type": "function",
      "signature": "0xacd233a9"
    },
    {
      "constant": true,
      "inputs": [
        {
          "name": "id_votacion",
          "type": "uint256"
        }
      ],
      "name": "listaCandidatos",
      "outputs": [
        {
          "name": "",
          "type": "string[]"
        }
      ],
      "payable": false,
      "stateMutability": "view",
      "type": "function",
      "signature": "0x3ce6fa44"
    },
    {
      "constant": false,
      "inputs": [
        {
          "name": "id_votacion",
          "type": "uint256"
        },
        {
          "name": "nombre_candidato",
          "type": "string"
        }
      ],
      "name": "votar",
      "outputs": [],
      "payable": false,
      "stateMutability": "nonpayable",
      "type": "function",
      "signature": "0x3fccc6c1"
    },
    {
      "constant": true,
      "inputs": [
        {
          "name": "id_votacion",
          "type": "uint256"
        }
      ],
      "name": "ganador",
      "outputs": [
        {
          "name": "",
          "type": "string"
        }
      ],
      "payable": false,
      "stateMutability": "view",
      "type": "function",
      "signature": "0x9b43a0e9"
    }
  ],
  "bytecode": "0x6080604052600060015534801561001557600080fd5b506120cf806100256000396000f3fe608060405260043610610083576000357c0100000000000000000000000000000000000000000000000000000000900463ffffffff1680633ce6fa44146100885780633fccc6c1146100c557806353f915b3146100ee5780638f5a1e48146101175780639511b5df146101405780639b43a0e91461016b578063acd233a9146101a8575b600080fd5b34801561009457600080fd5b506100af60048036036100aa9190810190611998565b6101d1565b6040516100bc9190611e43565b60405180910390f35b3480156100d157600080fd5b506100ec60048036036100e791908101906119c1565b61037e565b005b3480156100fa57600080fd5b5061011560048036036101109190810190611998565b61070b565b005b34801561012357600080fd5b5061013e600480360361013991908101906119c1565b610951565b005b34801561014c57600080fd5b50610155610e36565b6040516101629190611fe7565b60405180910390f35b34801561017757600080fd5b50610192600480360361018d9190810190611998565b610f8a565b60405161019f9190611e65565b60405180910390f35b3480156101b457600080fd5b506101cf60048036036101ca9190810190611998565b6111ef565b005b60607fffffffffffffffffffffffffffffffffffffffffffffffffffffffffffffffff8210151515610238576040517f08c379a000000000000000000000000000000000000000000000000000000000815260040161022f90611e87565b60405180910390fd5b6001548210151561027e576040517f08c379a000000000000000000000000000000000000000000000000000000000815260040161027590611ee7565b60405180910390fd5b606060036000848152602001908152602001600020805480602002602001604051908101604052809291908181526020016000905b8282101561036f578382906000526020600020018054600181600116156101000203166002900480601f01602080910402602001604051908101604052809291908181526020018280546001816001161561010002031660029004801561035b5780601f106103305761010080835404028352916020019161035b565b820191906000526020600020905b81548152906001019060200180831161033e57829003601f168201915b5050505050815260200190600101906102b3565b50505050905080915050919050565b7fffffffffffffffffffffffffffffffffffffffffffffffffffffffffffffffff83101515156103e3576040517f08c379a00000000000000000000000000000000000000000000000000000000081526004016103da90611e87565b60405180910390fd5b60015483101515610429576040517f08c379a000000000000000000000000000000000000000000000000000000000815260040161042090611ee7565b60405180910390fd5b6000600281111561043657fe5b60008085815260200190815260200160002060000160149054906101000a900460ff16600281111561046457fe5b141515156104a7576040517f08c379a000000000000000000000000000000000000000000000000000000000815260040161049e90611f87565b60405180910390fd5b6002808111156104b357fe5b60008085815260200190815260200160002060000160149054906101000a900460ff1660028111156104e157fe5b14151515610524576040517f08c379a000000000000000000000000000000000000000000000000000000000815260040161051b90611fc7565b60405180910390fd5b6004600084815260200190815260200160002060003373ffffffffffffffffffffffffffffffffffffffff1673ffffffffffffffffffffffffffffffffffffffff16815260200190815260200160002060009054906101000a900460ff161515156105c4576040517f08c379a00000000000000000000000000000000000000000000000000000000081526004016105bb90611ec7565b60405180910390fd5b6000600260008581526020019081526020016000208383604051808383808284378083019250505092505050908152602001604051809103902090508060010160089054906101000a900460ff161515610653576040517f08c379a000000000000000000000000000000000000000000000000000000000815260040161064a90611ea7565b60405180910390fd5b80600101600081819054906101000a900467ffffffffffffffff168092919060010191906101000a81548167ffffffffffffffff021916908367ffffffffffffffff1602179055505060016004600086815260200190815260200160002060003373ffffffffffffffffffffffffffffffffffffffff1673ffffffffffffffffffffffffffffffffffffffff16815260200190815260200160002060006101000a81548160ff02191690831515021790555050505050565b7fffffffffffffffffffffffffffffffffffffffffffffffffffffffffffffffff8110151515610770576040517f08c379a000000000000000000000000000000000000000000000000000000000815260040161076790611e87565b60405180910390fd5b600154811015156107b6576040517f08c379a00000000000000000000000000000000000000000000000000000000081526004016107ad90611ee7565b60405180910390fd5b600080600083815260200190815260200160002090508060000160009054906101000a900473ffffffffffffffffffffffffffffffffffffffff1673ffffffffffffffffffffffffffffffffffffffff163373ffffffffffffffffffffffffffffffffffffffff16141515610860576040517f08c379a000000000000000000000000000000000000000000000000000000000815260040161085790611f47565b60405180910390fd5b6000600281111561086d57fe5b8160000160149054906101000a900460ff16600281111561088a57fe5b1415156108cc576040517f08c379a00000000000000000000000000000000000000000000000000000000081526004016108c390611fa7565b60405180910390fd5b60006003600084815260200190815260200160002080549050111515610927576040517f08c379a000000000000000000000000000000000000000000000000000000000815260040161091e90611f07565b60405180910390fd5b60028160000160146101000a81548160ff0219169083600281111561094857fe5b02179055505050565b7fffffffffffffffffffffffffffffffffffffffffffffffffffffffffffffffff83101515156109b6576040517f08c379a00000000000000000000000000000000000000000000000000000000081526004016109ad90611e87565b60405180910390fd5b600154831015156109fc576040517f08c379a00000000000000000000000000000000000000000000000000000000081526004016109f390611ee7565b60405180910390fd5b610a0461164e565b600080858152602001908152602001600020606060405190810160405290816000820160009054906101000a900473ffffffffffffffffffffffffffffffffffffffff1673ffffffffffffffffffffffffffffffffffffffff1673ffffffffffffffffffffffffffffffffffffffff1681526020016000820160149054906101000a900460ff166002811115610a9657fe5b6002811115610aa157fe5b8152602001600182018054600181600116156101000203166002900480601f016020809104026020016040519081016040528092919081815260200182805460018160011615610100020316600290048015610b3e5780601f10610b1357610100808354040283529160200191610b3e565b820191906000526020600020905b815481529060010190602001808311610b2157829003601f168201915b5050505050815250509050806000015173ffffffffffffffffffffffffffffffffffffffff163373ffffffffffffffffffffffffffffffffffffffff16141515610bbd576040517f08c379a0000000000000000000000000000000000000000000000000000000008152600401610bb490611f47565b60405180910390fd5b60006002811115610bca57fe5b81602001516002811115610bda57fe5b141515610c1c576040517f08c379a0000000000000000000000000000000000000000000000000000000008152600401610c1390611fa7565b60405180910390fd5b600260008581526020019081526020016000208383604051808383808284378083019250505092505050908152602001604051809103902060010160089054906101000a900460ff16151515610ca7576040517f08c379a0000000000000000000000000000000000000000000000000000000008152600401610c9e90611f27565b60405180910390fd5b610caf611691565b83838080601f016020809104026020016040519081016040528093929190818152602001838380828437600081840152601f19601f8201169050808301925050505050505081600001819052506000816020019067ffffffffffffffff16908167ffffffffffffffff168152505060018160400190151590811515815250508060026000878152602001908152602001600020858560405180838380828437808301925050509250505090815260200160405180910390206000820151816000019080519060200190610d839291906116bf565b5060208201518160010160006101000a81548167ffffffffffffffff021916908367ffffffffffffffff16021790555060408201518160010160086101000a81548160ff021916908315150217905550905050600060036000878152602001908152602001600020905080858590918060018154018082558091505090600182039060005260206000200160009091929390919293909192909192509190610e2c92919061173f565b5050505050505050565b6000610e4061164e565b6000600154905033826000019073ffffffffffffffffffffffffffffffffffffffff16908173ffffffffffffffffffffffffffffffffffffffff1681525050600082602001906002811115610e9157fe5b90816002811115610e9e57fe5b815250508160008083815260200190815260200160002060008201518160000160006101000a81548173ffffffffffffffffffffffffffffffffffffffff021916908373ffffffffffffffffffffffffffffffffffffffff16021790555060208201518160000160146101000a81548160ff02191690836002811115610f2057fe5b02179055506040820151816001019080519060200190610f419291906116bf565b50905050606080600360008481526020019081526020016000209080519060200190610f6e9291906117bf565b5060016000815480929190600101919050555081935050505090565b60607fffffffffffffffffffffffffffffffffffffffffffffffffffffffffffffffff8210151515610ff1576040517f08c379a0000000000000000000000000000000000000000000000000000000008152600401610fe890611e87565b60405180910390fd5b60015482101515611037576040517f08c379a000000000000000000000000000000000000000000000000000000000815260040161102e90611ee7565b60405180910390fd5b61103f61164e565b600080848152602001908152602001600020606060405190810160405290816000820160009054906101000a900473ffffffffffffffffffffffffffffffffffffffff1673ffffffffffffffffffffffffffffffffffffffff1673ffffffffffffffffffffffffffffffffffffffff1681526020016000820160149054906101000a900460ff1660028111156110d157fe5b60028111156110dc57fe5b8152602001600182018054600181600116156101000203166002900480601f0160208091040260200160405190810160405280929190818152602001828054600181600116156101000203166002900480156111795780601f1061114e57610100808354040283529160200191611179565b820191906000526020600020905b81548152906001019060200180831161115c57829003601f168201915b505050505081525050905060028081111561119057fe5b816020015160028111156111a057fe5b1415156111e2576040517f08c379a00000000000000000000000000000000000000000000000000000000081526004016111d990611f67565b60405180910390fd5b8060400151915050919050565b7fffffffffffffffffffffffffffffffffffffffffffffffffffffffffffffffff8110151515611254576040517f08c379a000000000000000000000000000000000000000000000000000000000815260040161124b90611e87565b60405180910390fd5b6001548110151561129a576040517f08c379a000000000000000000000000000000000000000000000000000000000815260040161129190611ee7565b60405180910390fd5b600080600083815260200190815260200160002090508060000160009054906101000a900473ffffffffffffffffffffffffffffffffffffffff1673ffffffffffffffffffffffffffffffffffffffff163373ffffffffffffffffffffffffffffffffffffffff16141515611344576040517f08c379a000000000000000000000000000000000000000000000000000000000815260040161133b90611f47565b60405180910390fd5b6000600281111561135157fe5b8160000160149054906101000a900460ff16600281111561136e57fe5b141515156113b1576040517f08c379a00000000000000000000000000000000000000000000000000000000081526004016113a890611f87565b60405180910390fd5b6002808111156113bd57fe5b8160000160149054906101000a900460ff1660028111156113da57fe5b1415151561141d576040517f08c379a000000000000000000000000000000000000000000000000000000000815260040161141490611fc7565b60405180910390fd5b606060036000848152602001908152602001600020805480602002602001604051908101604052809291908181526020016000905b8282101561150e578382906000526020600020018054600181600116156101000203166002900480601f0160208091040260200160405190810160405280929190818152602001828054600181600116156101000203166002900480156114fa5780601f106114cf576101008083540402835291602001916114fa565b820191906000526020600020905b8154815290600101906020018083116114dd57829003601f168201915b505050505081526020019060010190611452565b505050509050606081600081518110151561152557fe5b9060200190602002015190506000809050600080600090505b84518161ffff16101561162c5760026000888152602001908152602001600020846040518082805190602001908083835b602083101515611594578051825260208201915060208101905060208303925061156f565b6001836020036101000a038019825116818451168082178552505050505050905001915050908152602001604051809103902060010160009054906101000a900467ffffffffffffffff1691508267ffffffffffffffff168267ffffffffffffffff16111561161f57819250848161ffff1681518110151561161257fe5b9060200190602002015193505b808060010191505061153e565b508285600101908051906020019061164592919061181f565b50505050505050565b606060405190810160405280600073ffffffffffffffffffffffffffffffffffffffff1681526020016000600281111561168457fe5b8152602001606081525090565b60606040519081016040528060608152602001600067ffffffffffffffff1681526020016000151581525090565b828054600181600116156101000203166002900490600052602060002090601f016020900481019282601f1061170057805160ff191683800117855561172e565b8280016001018555821561172e579182015b8281111561172d578251825591602001919060010190611712565b5b50905061173b919061189f565b5090565b828054600181600116156101000203166002900490600052602060002090601f016020900481019282601f1061178057803560ff19168380011785556117ae565b828001600101855582156117ae579182015b828111156117ad578235825591602001919060010190611792565b5b5090506117bb919061189f565b5090565b82805482825590600052602060002090810192821561180e579160200282015b8281111561180d5782518290805190602001906117fd9291906116bf565b50916020019190600101906117df565b5b50905061181b91906118c4565b5090565b828054600181600116156101000203166002900490600052602060002090601f016020900481019282601f1061186057805160ff191683800117855561188e565b8280016001018555821561188e579182015b8281111561188d578251825591602001919060010190611872565b5b50905061189b919061189f565b5090565b6118c191905b808211156118bd5760008160009055506001016118a5565b5090565b90565b6118ed91905b808211156118e957600081816118e091906118f0565b506001016118ca565b5090565b90565b50805460018160011615610100020316600290046000825580601f106119165750611935565b601f016020900490600052602060002090810190611934919061189f565b5b50565b60008083601f840112151561194c57600080fd5b8235905067ffffffffffffffff81111561196557600080fd5b60208301915083600182028301111561197d57600080fd5b9250929050565b60006119908235612047565b905092915050565b6000602082840312156119aa57600080fd5b60006119b884828501611984565b91505092915050565b6000806000604084860312156119d657600080fd5b60006119e486828701611984565b935050602084013567ffffffffffffffff811115611a0157600080fd5b611a0d86828701611938565b92509250509250925092565b6000611a248261200f565b80845260208401935083602082028501611a3d85612002565b60005b84811015611a76578383038852611a58838351611abd565b9250611a6382612030565b9150602088019750600181019050611a40565b508196508694505050505092915050565b6000611a9282612025565b808452611aa6816020860160208601612051565b611aaf81612084565b602085010191505092915050565b6000611ac88261201a565b808452611adc816020860160208601612051565b611ae581612084565b602085010191505092915050565b6000603282527f456c206964206465206c6120766f746163696f6e206465626520736572206d6160208301527f796f72206f20696775616c2071756520302e00000000000000000000000000006040830152606082019050919050565b6000601682527f456c2063616e64696461746f206e6f20657869737465000000000000000000006020830152604082019050919050565b6000601f82527f59612068617320766f7461646f20656e206573746120656e6375657374612e006020830152604082019050919050565b6000601682527f4c6120766f746163696f6e206e6f206578697374652e000000000000000000006020830152604082019050919050565b6000603d82527f5365206e6563657369746120616c206d656e6f7320756e2063616e646964617460208301527f6f207061726120706f64657220636572726172206c61206c697374612e0000006040830152606082019050919050565b6000601782527f456c2063616e64696461746f207961206578697374652e0000000000000000006020830152604082019050919050565b6000602882527f4e6f206572657320656c2070726f706965746172696f2064652065737461207660208301527f6f746163696f6e2e0000000000000000000000000000000000000000000000006040830152606082019050919050565b6000602182527f4c6120766f746163696f6e2061756e206e6f2068612066696e616c697a61646f60208301527f2e000000000000000000000000000000000000000000000000000000000000006040830152606082019050919050565b6000602b82527f4c61206c697374612064652063616e64696461746f732061756e206e6f20657360208301527f746120636572726164612e0000000000000000000000000000000000000000006040830152606082019050919050565b6000602782527f4c61206c697374612064652063616e64696461746f732079612065737461206360208301527f6572726164612e000000000000000000000000000000000000000000000000006040830152606082019050919050565b6000601f82527f4c6120766f746163696f6e207961206861207369646f20636572726164612e006020830152604082019050919050565b611e3d8161203d565b82525050565b60006020820190508181036000830152611e5d8184611a19565b905092915050565b60006020820190508181036000830152611e7f8184611a87565b905092915050565b60006020820190508181036000830152611ea081611af3565b9050919050565b60006020820190508181036000830152611ec081611b50565b9050919050565b60006020820190508181036000830152611ee081611b87565b9050919050565b60006020820190508181036000830152611f0081611bbe565b9050919050565b60006020820190508181036000830152611f2081611bf5565b9050919050565b60006020820190508181036000830152611f4081611c52565b9050919050565b60006020820190508181036000830152611f6081611c89565b9050919050565b60006020820190508181036000830152611f8081611ce6565b9050919050565b60006020820190508181036000830152611fa081611d43565b9050919050565b60006020820190508181036000830152611fc081611da0565b9050919050565b60006020820190508181036000830152611fe081611dfd565b9050919050565b6000602082019050611ffc6000830184611e34565b92915050565b6000602082019050919050565b600081519050919050565b600081519050919050565b600081519050919050565b6000602082019050919050565b6000819050919050565b6000819050919050565b60005b8381101561206f578082015181840152602081019050612054565b8381111561207e576000848401525b50505050565b6000601f19601f830116905091905056fea265627a7a7230582090eb16ffa716349a8ad2d75b00fd91f6e380a0aea5f8d157dbba6fc5490227706c6578706572696d656e74616cf50037",
  "source": "pragma solidity >=0.5.0 <0.8.0;\npragma experimental ABIEncoderV2;\n\ncontract Votaciones {\n\n    enum Estado { Creada, Abierta, Cerrada }\n\n    struct Candidato {\n        string nombre;\n        uint64 votos;\n        bool exists;\n    }\n\n    struct Votacion {\n        address propietario;\n        Estado estado;\n        string ganador;\n    }\n\n    mapping(uint => Votacion) private votaciones;\n    uint private contadorVotaciones = 0;\n\n    mapping(uint => mapping(string => Candidato)) private candidatos;\n    mapping(uint => string[]) private candidatos_nombres;\n    \n    mapping(uint => mapping(address => bool)) private votantes;\n\n    //Sección de funciones del propietario\n    function crearVotacion() external returns (uint) {\n        Votacion memory nueva_votacion;\n        uint id = contadorVotaciones;\n\n        nueva_votacion.propietario = msg.sender;\n        nueva_votacion.estado = Estado.Creada;\n        votaciones[id] = nueva_votacion;\n\n        //Necesario? Eliminar en caso contario\n        string[] memory lista_candidatos;\n        candidatos_nombres[id] = lista_candidatos;\n\n        contadorVotaciones++;\n\n        /* Otra posibilidad\n        nueva_votacion = Votacion({\n            propietario: msg.sender,\n            estado: Estado.Creada,\n            ganador: Candidato(\"\", 0)\n        }); */\n\n        return id;\n    }\n\n    \n    function addCandidato(uint id_votacion, string calldata nombre_candidato) external {\n        require(id_votacion >= uint(-1), \"El id de la votacion debe ser mayor o igual que 0.\");\n        require(id_votacion < contadorVotaciones, \"La votacion no existe.\");\n        Votacion memory votacion = votaciones[id_votacion];\n\n        require(msg.sender == votacion.propietario, \"No eres el propietario de esta votacion.\"); \n        require(votacion.estado == Estado.Creada, \"La lista de candidatos ya esta cerrada.\");\n        require(!candidatos[id_votacion][nombre_candidato].exists, \"El candidato ya existe.\");\n        \n        Candidato memory nuevo_candidato;\n        nuevo_candidato.nombre = nombre_candidato;\n        nuevo_candidato.votos = 0;\n        nuevo_candidato.exists = true;\n        candidatos[id_votacion][nombre_candidato] = nuevo_candidato;\n\n        string[] storage candidatos_votacion = candidatos_nombres[id_votacion];\n        candidatos_votacion.push(nombre_candidato);\n    }\n\n    function cerrarLista(uint id_votacion) external {\n        require(id_votacion >= uint(-1), \"El id de la votacion debe ser mayor o igual que 0.\");\n        require(id_votacion < contadorVotaciones, \"La votacion no existe.\");\n        Votacion storage votacion = votaciones[id_votacion];\n\n        require(msg.sender == votacion.propietario, \"No eres el propietario de esta votacion.\"); \n        require(votacion.estado == Estado.Creada, \"La lista de candidatos ya esta cerrada.\");\n        require(candidatos_nombres[id_votacion].length > 0, \"Se necesita al menos un candidato para poder cerrar la lista.\");\n\n        votacion.estado = Estado.Cerrada;\n    }\n\n    function cerrarEncuesta(uint id_votacion) external {\n        require(id_votacion >= uint(-1), \"El id de la votacion debe ser mayor o igual que 0.\");\n        require(id_votacion < contadorVotaciones, \"La votacion no existe.\");\n        Votacion storage votacion = votaciones[id_votacion];\n\n        require(msg.sender == votacion.propietario, \"No eres el propietario de esta votacion.\"); \n        require(votacion.estado != Estado.Creada, \"La lista de candidatos aun no esta cerrada.\");\n        require(votacion.estado != Estado.Cerrada, \"La votacion ya ha sido cerrada.\");\n\n\n        string[] memory lista_candidatos = candidatos_nombres[id_votacion];\n        string memory curr_ganador = lista_candidatos[0];\n        uint64 max_votos = 0;\n        uint64 curr_votos;\n        for (uint16 i = 0; i < lista_candidatos.length; i++) {\n            curr_votos = candidatos[id_votacion][curr_ganador].votos;\n            if (curr_votos > max_votos) {\n                max_votos = curr_votos;\n                curr_ganador = lista_candidatos[i];\n            }\n        }\n\n        votacion.ganador = curr_ganador;\n\n    }\n    \n    // ----- Seccion de otros usuarios -----\n\n    function listaCandidatos(uint id_votacion) external view returns (string[] memory) {\n        require(id_votacion >= uint(-1), \"El id de la votacion debe ser mayor o igual que 0.\");\n        require(id_votacion < contadorVotaciones, \"La votacion no existe.\");\n\n        string[] memory list_candidatos = candidatos_nombres[id_votacion];\n        return list_candidatos;\n    }\n\n    function votar(uint id_votacion, string calldata nombre_candidato) external {\n        require(id_votacion >= uint(-1), \"El id de la votacion debe ser mayor o igual que 0.\");\n        require(id_votacion < contadorVotaciones, \"La votacion no existe.\");\n        require(votaciones[id_votacion].estado != Estado.Creada, \"La lista de candidatos aun no esta cerrada.\");\n        require(votaciones[id_votacion].estado != Estado.Cerrada, \"La votacion ya ha sido cerrada.\");\n        require(!votantes[id_votacion][msg.sender], \"Ya has votado en esta encuesta.\");\n\n        Candidato storage candidato = candidatos[id_votacion][nombre_candidato];\n        require(candidato.exists, \"El candidato no existe\");\n        candidato.votos++;\n\n        votantes[id_votacion][msg.sender] = true;\n    }\n\n    function ganador(uint id_votacion) external view returns (string memory){\n        require(id_votacion >= uint(-1), \"El id de la votacion debe ser mayor o igual que 0.\");\n        require(id_votacion < contadorVotaciones, \"La votacion no existe.\");\n        Votacion memory votacion = votaciones[id_votacion];\n\n        require(votacion.estado == Estado.Cerrada, \"La votacion aun no ha finalizado.\");\n\n        return votacion.ganador;\n    }\n}\n",
  "sourcePath": "/home/ethereum/Escritorio/ethereum_adi/backend/contracts/Votaciones.sol",
  "compiler": {
    "name": "solc",
    "version": "0.5.0+commit.1d4f565a.Emscripten.clang"
  },
  "schemaVersion": "3.0.2",
  "updatedAt": "2021-01-24T17:56:19.774Z",
  "devdoc": {
    "methods": {}
  },
  "userdoc": {
    "methods": {}
  }
}