{
  "contractName": "Votaciones",
  "abi": [
    {
      "constant": false,
      "inputs": [],
      "name": "crearVotacion",
      "outputs": [
        {
          "name": "",
          "type": "uint256"
        }
      ],
      "payable": false,
      "stateMutability": "nonpayable",
      "type": "function",
      "signature": "0x9511b5df"
    },
    {
      "constant": false,
      "inputs": [
        {
          "name": "id_votacion",
          "type": "uint256"
        },
        {
          "name": "nombre_candidato",
          "type": "string"
        }
      ],
      "name": "addCandidato",
      "outputs": [],
      "payable": false,
      "stateMutability": "nonpayable",
      "type": "function",
      "signature": "0x8f5a1e48"
    },
    {
      "constant": false,
      "inputs": [
        {
          "name": "id_votacion",
          "type": "uint256"
        }
      ],
      "name": "cerrarLista",
      "outputs": [],
      "payable": false,
      "stateMutability": "nonpayable",
      "type": "function",
      "signature": "0x53f915b3"
    },
    {
      "constant": false,
      "inputs": [
        {
          "name": "id_votacion",
          "type": "uint256"
        }
      ],
      "name": "cerrarEncuesta",
      "outputs": [],
      "payable": false,
      "stateMutability": "nonpayable",
      "type": "function",
      "signature": "0xacd233a9"
    },
    {
      "constant": true,
      "inputs": [
        {
          "name": "id_votacion",
          "type": "uint256"
        }
      ],
      "name": "listaCandidatos",
      "outputs": [
        {
          "name": "",
          "type": "string[]"
        }
      ],
      "payable": false,
      "stateMutability": "view",
      "type": "function",
      "signature": "0x3ce6fa44"
    },
    {
      "constant": false,
      "inputs": [
        {
          "name": "id_votacion",
          "type": "uint256"
        },
        {
          "name": "nombre_candidato",
          "type": "string"
        }
      ],
      "name": "votar",
      "outputs": [],
      "payable": false,
      "stateMutability": "nonpayable",
      "type": "function",
      "signature": "0x3fccc6c1"
    },
    {
      "constant": true,
      "inputs": [
        {
          "name": "id_votacion",
          "type": "uint256"
        }
      ],
      "name": "ganador",
      "outputs": [
        {
          "name": "",
          "type": "string"
        }
      ],
      "payable": false,
      "stateMutability": "view",
      "type": "function",
      "signature": "0x9b43a0e9"
    },
    {
      "constant": true,
      "inputs": [
        {
          "name": "id_votacion",
          "type": "uint256"
        }
      ],
      "name": "listaVotos",
      "outputs": [
        {
          "name": "",
          "type": "uint64[]"
        }
      ],
      "payable": false,
      "stateMutability": "view",
      "type": "function",
      "signature": "0xcdd7f682"
    }
  ],
  "bytecode": "0x6080604052600060015534801561001557600080fd5b506123bf806100256000396000f3fe60806040526004361061008e576000357c0100000000000000000000000000000000000000000000000000000000900463ffffffff1680633ce6fa44146100935780633fccc6c1146100d057806353f915b3146100f95780638f5a1e48146101225780639511b5df1461014b5780639b43a0e914610176578063acd233a9146101b3578063cdd7f682146101dc575b600080fd5b34801561009f57600080fd5b506100ba60048036036100b59190810190611be9565b610219565b6040516100c791906120d8565b60405180910390f35b3480156100dc57600080fd5b506100f760048036036100f29190810190611c12565b610361565b005b34801561010557600080fd5b50610120600480360361011b9190810190611be9565b610689565b005b34801561012e57600080fd5b5061014960048036036101449190810190611c12565b61086a565b005b34801561015757600080fd5b50610160610cea565b60405161016d919061229e565b60405180910390f35b34801561018257600080fd5b5061019d60048036036101989190810190611be9565b610e3e565b6040516101aa919061211c565b60405180910390f35b3480156101bf57600080fd5b506101da60048036036101d59190810190611be9565b61103e565b005b3480156101e857600080fd5b5061020360048036036101fe9190810190611be9565b611464565b60405161021091906120fa565b60405180910390f35b606060015482101515610261576040517f08c379a00000000000000000000000000000000000000000000000000000000081526004016102589061219e565b60405180910390fd5b606060036000848152602001908152602001600020805480602002602001604051908101604052809291908181526020016000905b82821015610352578382906000526020600020018054600181600116156101000203166002900480601f01602080910402602001604051908101604052809291908181526020018280546001816001161561010002031660029004801561033e5780601f106103135761010080835404028352916020019161033e565b820191906000526020600020905b81548152906001019060200180831161032157829003601f168201915b505050505081526020019060010190610296565b50505050905080915050919050565b600154831015156103a7576040517f08c379a000000000000000000000000000000000000000000000000000000000815260040161039e9061219e565b60405180910390fd5b600060028111156103b457fe5b60008085815260200190815260200160002060000160149054906101000a900460ff1660028111156103e257fe5b14151515610425576040517f08c379a000000000000000000000000000000000000000000000000000000000815260040161041c9061223e565b60405180910390fd5b60028081111561043157fe5b60008085815260200190815260200160002060000160149054906101000a900460ff16600281111561045f57fe5b141515156104a2576040517f08c379a00000000000000000000000000000000000000000000000000000000081526004016104999061227e565b60405180910390fd5b6004600084815260200190815260200160002060003373ffffffffffffffffffffffffffffffffffffffff1673ffffffffffffffffffffffffffffffffffffffff16815260200190815260200160002060009054906101000a900460ff16151515610542576040517f08c379a00000000000000000000000000000000000000000000000000000000081526004016105399061217e565b60405180910390fd5b6000600260008581526020019081526020016000208383604051808383808284378083019250505092505050908152602001604051809103902090508060010160089054906101000a900460ff1615156105d1576040517f08c379a00000000000000000000000000000000000000000000000000000000081526004016105c89061215e565b60405180910390fd5b80600101600081819054906101000a900467ffffffffffffffff168092919060010191906101000a81548167ffffffffffffffff021916908367ffffffffffffffff1602179055505060016004600086815260200190815260200160002060003373ffffffffffffffffffffffffffffffffffffffff1673ffffffffffffffffffffffffffffffffffffffff16815260200190815260200160002060006101000a81548160ff02191690831515021790555050505050565b600154811015156106cf576040517f08c379a00000000000000000000000000000000000000000000000000000000081526004016106c69061219e565b60405180910390fd5b600080600083815260200190815260200160002090508060000160009054906101000a900473ffffffffffffffffffffffffffffffffffffffff1673ffffffffffffffffffffffffffffffffffffffff163373ffffffffffffffffffffffffffffffffffffffff16141515610779576040517f08c379a0000000000000000000000000000000000000000000000000000000008152600401610770906121fe565b60405180910390fd5b6000600281111561078657fe5b8160000160149054906101000a900460ff1660028111156107a357fe5b1415156107e5576040517f08c379a00000000000000000000000000000000000000000000000000000000081526004016107dc9061225e565b60405180910390fd5b60006003600084815260200190815260200160002080549050111515610840576040517f08c379a0000000000000000000000000000000000000000000000000000000008152600401610837906121be565b60405180910390fd5b60018160000160146101000a81548160ff0219169083600281111561086157fe5b02179055505050565b600154831015156108b0576040517f08c379a00000000000000000000000000000000000000000000000000000000081526004016108a79061219e565b60405180910390fd5b6108b861189f565b600080858152602001908152602001600020606060405190810160405290816000820160009054906101000a900473ffffffffffffffffffffffffffffffffffffffff1673ffffffffffffffffffffffffffffffffffffffff1673ffffffffffffffffffffffffffffffffffffffff1681526020016000820160149054906101000a900460ff16600281111561094a57fe5b600281111561095557fe5b8152602001600182018054600181600116156101000203166002900480601f0160208091040260200160405190810160405280929190818152602001828054600181600116156101000203166002900480156109f25780601f106109c7576101008083540402835291602001916109f2565b820191906000526020600020905b8154815290600101906020018083116109d557829003601f168201915b5050505050815250509050806000015173ffffffffffffffffffffffffffffffffffffffff163373ffffffffffffffffffffffffffffffffffffffff16141515610a71576040517f08c379a0000000000000000000000000000000000000000000000000000000008152600401610a68906121fe565b60405180910390fd5b60006002811115610a7e57fe5b81602001516002811115610a8e57fe5b141515610ad0576040517f08c379a0000000000000000000000000000000000000000000000000000000008152600401610ac79061225e565b60405180910390fd5b600260008581526020019081526020016000208383604051808383808284378083019250505092505050908152602001604051809103902060010160089054906101000a900460ff16151515610b5b576040517f08c379a0000000000000000000000000000000000000000000000000000000008152600401610b52906121de565b60405180910390fd5b610b636118e2565b83838080601f016020809104026020016040519081016040528093929190818152602001838380828437600081840152601f19601f8201169050808301925050505050505081600001819052506000816020019067ffffffffffffffff16908167ffffffffffffffff168152505060018160400190151590811515815250508060026000878152602001908152602001600020858560405180838380828437808301925050509250505090815260200160405180910390206000820151816000019080519060200190610c37929190611910565b5060208201518160010160006101000a81548167ffffffffffffffff021916908367ffffffffffffffff16021790555060408201518160010160086101000a81548160ff021916908315150217905550905050600060036000878152602001908152602001600020905080858590918060018154018082558091505090600182039060005260206000200160009091929390919293909192909192509190610ce0929190611990565b5050505050505050565b6000610cf461189f565b6000600154905033826000019073ffffffffffffffffffffffffffffffffffffffff16908173ffffffffffffffffffffffffffffffffffffffff1681525050600082602001906002811115610d4557fe5b90816002811115610d5257fe5b815250508160008083815260200190815260200160002060008201518160000160006101000a81548173ffffffffffffffffffffffffffffffffffffffff021916908373ffffffffffffffffffffffffffffffffffffffff16021790555060208201518160000160146101000a81548160ff02191690836002811115610dd457fe5b02179055506040820151816001019080519060200190610df5929190611910565b50905050606080600360008481526020019081526020016000209080519060200190610e22929190611a10565b5060016000815480929190600101919050555081935050505090565b606060015482101515610e86576040517f08c379a0000000000000000000000000000000000000000000000000000000008152600401610e7d9061219e565b60405180910390fd5b610e8e61189f565b600080848152602001908152602001600020606060405190810160405290816000820160009054906101000a900473ffffffffffffffffffffffffffffffffffffffff1673ffffffffffffffffffffffffffffffffffffffff1673ffffffffffffffffffffffffffffffffffffffff1681526020016000820160149054906101000a900460ff166002811115610f2057fe5b6002811115610f2b57fe5b8152602001600182018054600181600116156101000203166002900480601f016020809104026020016040519081016040528092919081815260200182805460018160011615610100020316600290048015610fc85780601f10610f9d57610100808354040283529160200191610fc8565b820191906000526020600020905b815481529060010190602001808311610fab57829003601f168201915b5050505050815250509050600280811115610fdf57fe5b81602001516002811115610fef57fe5b141515611031576040517f08c379a00000000000000000000000000000000000000000000000000000000081526004016110289061221e565b60405180910390fd5b8060400151915050919050565b60015481101515611084576040517f08c379a000000000000000000000000000000000000000000000000000000000815260040161107b9061219e565b60405180910390fd5b600080600083815260200190815260200160002090508060000160009054906101000a900473ffffffffffffffffffffffffffffffffffffffff1673ffffffffffffffffffffffffffffffffffffffff163373ffffffffffffffffffffffffffffffffffffffff1614151561112e576040517f08c379a0000000000000000000000000000000000000000000000000000000008152600401611125906121fe565b60405180910390fd5b6000600281111561113b57fe5b8160000160149054906101000a900460ff16600281111561115857fe5b1415151561119b576040517f08c379a00000000000000000000000000000000000000000000000000000000081526004016111929061223e565b60405180910390fd5b6002808111156111a757fe5b8160000160149054906101000a900460ff1660028111156111c457fe5b14151515611207576040517f08c379a00000000000000000000000000000000000000000000000000000000081526004016111fe9061227e565b60405180910390fd5b606060036000848152602001908152602001600020805480602002602001604051908101604052809291908181526020016000905b828210156112f8578382906000526020600020018054600181600116156101000203166002900480601f0160208091040260200160405190810160405280929190818152602001828054600181600116156101000203166002900480156112e45780601f106112b9576101008083540402835291602001916112e4565b820191906000526020600020905b8154815290600101906020018083116112c757829003601f168201915b50505050508152602001906001019061123c565b505050509050606081600081518110151561130f57fe5b90602001906020020151905060606000809050600080600090505b85518161ffff16101561141b57858161ffff1681518110151561134957fe5b90602001906020020151935060026000898152602001908152602001600020846040518082805190602001908083835b60208310151561139e5780518252602082019150602081019050602083039250611379565b6001836020036101000a038019825116818451168082178552505050505050905001915050908152602001604051809103902060010160009054906101000a900467ffffffffffffffff1691508267ffffffffffffffff168267ffffffffffffffff16111561140e578192508394505b808060010191505061132a565b5083866001019080519060200190611434929190611a70565b5060028660000160146101000a81548160ff0219169083600281111561145657fe5b021790555050505050505050565b6060600154821015156114ac576040517f08c379a00000000000000000000000000000000000000000000000000000000081526004016114a39061219e565b60405180910390fd5b6114b461189f565b600080848152602001908152602001600020606060405190810160405290816000820160009054906101000a900473ffffffffffffffffffffffffffffffffffffffff1673ffffffffffffffffffffffffffffffffffffffff1673ffffffffffffffffffffffffffffffffffffffff1681526020016000820160149054906101000a900460ff16600281111561154657fe5b600281111561155157fe5b8152602001600182018054600181600116156101000203166002900480601f0160208091040260200160405190810160405280929190818152602001828054600181600116156101000203166002900480156115ee5780601f106115c3576101008083540402835291602001916115ee565b820191906000526020600020905b8154815290600101906020018083116115d157829003601f168201915b505050505081525050905060028081111561160557fe5b8160200151600281111561161557fe5b141515611657576040517f08c379a000000000000000000000000000000000000000000000000000000000815260040161164e9061213e565b60405180910390fd5b606060036000858152602001908152602001600020805480602002602001604051908101604052809291908181526020016000905b82821015611748578382906000526020600020018054600181600116156101000203166002900480601f0160208091040260200160405190810160405280929190818152602001828054600181600116156101000203166002900480156117345780601f1061170957610100808354040283529160200191611734565b820191906000526020600020905b81548152906001019060200180831161171757829003601f168201915b50505050508152602001906001019061168c565b5050505090506000815190506060816040519080825280602002602001820160405280156117855781602001602082028038833980820191505090505b509050606060008090505b838161ffff16101561189157848161ffff168151811015156117ae57fe5b90602001906020020151915060026000898152602001908152602001600020826040518082805190602001908083835b60208310151561180357805182526020820191506020810190506020830392506117de565b6001836020036101000a038019825116818451168082178552505050505050905001915050908152602001604051809103902060010160009054906101000a900467ffffffffffffffff16838261ffff1681518110151561186057fe5b9060200190602002019067ffffffffffffffff16908167ffffffffffffffff16815250508080600101915050611790565b508195505050505050919050565b606060405190810160405280600073ffffffffffffffffffffffffffffffffffffffff168152602001600060028111156118d557fe5b8152602001606081525090565b60606040519081016040528060608152602001600067ffffffffffffffff1681526020016000151581525090565b828054600181600116156101000203166002900490600052602060002090601f016020900481019282601f1061195157805160ff191683800117855561197f565b8280016001018555821561197f579182015b8281111561197e578251825591602001919060010190611963565b5b50905061198c9190611af0565b5090565b828054600181600116156101000203166002900490600052602060002090601f016020900481019282601f106119d157803560ff19168380011785556119ff565b828001600101855582156119ff579182015b828111156119fe5782358255916020019190600101906119e3565b5b509050611a0c9190611af0565b5090565b828054828255906000526020600020908101928215611a5f579160200282015b82811115611a5e578251829080519060200190611a4e929190611910565b5091602001919060010190611a30565b5b509050611a6c9190611b15565b5090565b828054600181600116156101000203166002900490600052602060002090601f016020900481019282601f10611ab157805160ff1916838001178555611adf565b82800160010185558215611adf579182015b82811115611ade578251825591602001919060010190611ac3565b5b509050611aec9190611af0565b5090565b611b1291905b80821115611b0e576000816000905550600101611af6565b5090565b90565b611b3e91905b80821115611b3a5760008181611b319190611b41565b50600101611b1b565b5090565b90565b50805460018160011615610100020316600290046000825580601f10611b675750611b86565b601f016020900490600052602060002090810190611b859190611af0565b5b50565b60008083601f8401121515611b9d57600080fd5b8235905067ffffffffffffffff811115611bb657600080fd5b602083019150836001820283011115611bce57600080fd5b9250929050565b6000611be18235612337565b905092915050565b600060208284031215611bfb57600080fd5b6000611c0984828501611bd5565b91505092915050565b600080600060408486031215611c2757600080fd5b6000611c3586828701611bd5565b935050602084013567ffffffffffffffff811115611c5257600080fd5b611c5e86828701611b89565b92509250509250925092565b6000611c75826122d3565b80845260208401935083602082028501611c8e856122b9565b60005b84811015611cc7578383038852611ca9838351611d69565b9250611cb4826122ff565b9150602088019750600181019050611c91565b508196508694505050505092915050565b6000611ce3826122de565b808452602084019350611cf5836122c6565b60005b82811015611d2757611d0b8683516120c9565b611d148261230c565b9150602086019550600181019050611cf8565b50849250505092915050565b6000611d3e826122f4565b808452611d52816020860160208601612341565b611d5b81612374565b602085010191505092915050565b6000611d74826122e9565b808452611d88816020860160208601612341565b611d9181612374565b602085010191505092915050565b6000601c82527f4c6120766f74616369c3b36e206e6f206861207465726d696e61646f000000006020830152604082019050919050565b6000601682527f456c2063616e64696461746f206e6f20657869737465000000000000000000006020830152604082019050919050565b6000601f82527f59612068617320766f7461646f20656e206573746120656e6375657374612e006020830152604082019050919050565b6000601682527f4c6120766f746163696f6e206e6f206578697374652e000000000000000000006020830152604082019050919050565b6000603d82527f5365206e6563657369746120616c206d656e6f7320756e2063616e646964617460208301527f6f207061726120706f64657220636572726172206c61206c697374612e0000006040830152606082019050919050565b6000601782527f456c2063616e64696461746f207961206578697374652e0000000000000000006020830152604082019050919050565b6000602882527f4e6f206572657320656c2070726f706965746172696f2064652065737461207660208301527f6f746163696f6e2e0000000000000000000000000000000000000000000000006040830152606082019050919050565b6000602182527f4c6120766f746163696f6e2061756e206e6f2068612066696e616c697a61646f60208301527f2e000000000000000000000000000000000000000000000000000000000000006040830152606082019050919050565b6000602b82527f4c61206c697374612064652063616e64696461746f732061756e206e6f20657360208301527f746120636572726164612e0000000000000000000000000000000000000000006040830152606082019050919050565b6000602782527f4c61206c697374612064652063616e64696461746f732079612065737461206360208301527f6572726164612e000000000000000000000000000000000000000000000000006040830152606082019050919050565b6000601f82527f4c6120766f746163696f6e207961206861207369646f20636572726164612e006020830152604082019050919050565b6120c381612319565b82525050565b6120d281612323565b82525050565b600060208201905081810360008301526120f28184611c6a565b905092915050565b600060208201905081810360008301526121148184611cd8565b905092915050565b600060208201905081810360008301526121368184611d33565b905092915050565b6000602082019050818103600083015261215781611d9f565b9050919050565b6000602082019050818103600083015261217781611dd6565b9050919050565b6000602082019050818103600083015261219781611e0d565b9050919050565b600060208201905081810360008301526121b781611e44565b9050919050565b600060208201905081810360008301526121d781611e7b565b9050919050565b600060208201905081810360008301526121f781611ed8565b9050919050565b6000602082019050818103600083015261221781611f0f565b9050919050565b6000602082019050818103600083015261223781611f6c565b9050919050565b6000602082019050818103600083015261225781611fc9565b9050919050565b6000602082019050818103600083015261227781612026565b9050919050565b6000602082019050818103600083015261229781612083565b9050919050565b60006020820190506122b360008301846120ba565b92915050565b6000602082019050919050565b6000602082019050919050565b600081519050919050565b600081519050919050565b600081519050919050565b600081519050919050565b6000602082019050919050565b6000602082019050919050565b6000819050919050565b600067ffffffffffffffff82169050919050565b6000819050919050565b60005b8381101561235f578082015181840152602081019050612344565b8381111561236e576000848401525b50505050565b6000601f19601f830116905091905056fea265627a7a7230582091483dc846a66db8f69ec7e395d23f1df9a1013c9af74664612ed058703bfc466c6578706572696d656e74616cf50037",
  "source": "pragma solidity >=0.5.0 <0.8.0;\npragma experimental ABIEncoderV2;\n\ncontract Votaciones {\n\n    enum Estado { Creada, Abierta, Cerrada }\n\n    struct Candidato {\n        string nombre;\n        uint64 votos;\n        bool exists;\n    }\n\n    struct Votacion {\n        address propietario;\n        Estado estado;\n        string ganador;\n    }\n\n    mapping(uint => Votacion) private votaciones;\n    uint private contadorVotaciones = 0;\n\n    mapping(uint => mapping(string => Candidato)) private candidatos;\n    mapping(uint => string[]) private candidatos_nombres;\n    \n    mapping(uint => mapping(address => bool)) private votantes;\n\n    //Seccin de funciones del propietario\n    function crearVotacion() external returns (uint) {\n        Votacion memory nueva_votacion;\n        uint id = contadorVotaciones;\n\n        nueva_votacion.propietario = msg.sender;\n        nueva_votacion.estado = Estado.Creada;\n        votaciones[id] = nueva_votacion;\n\n        //Necesario? Eliminar en caso contario\n        string[] memory lista_candidatos;\n        candidatos_nombres[id] = lista_candidatos;\n\n        contadorVotaciones++;\n\n        /* Otra posibilidad\n        nueva_votacion = Votacion({\n            propietario: msg.sender,\n            estado: Estado.Creada,\n            ganador: Candidato(\"\", 0)\n        }); */\n\n        return id;\n    }\n\n    \n    function addCandidato(uint id_votacion, string calldata nombre_candidato) external {\n        \n        require(id_votacion < contadorVotaciones, \"La votacion no existe.\");\n        Votacion memory votacion = votaciones[id_votacion];\n\n        require(msg.sender == votacion.propietario, \"No eres el propietario de esta votacion.\"); \n        require(votacion.estado == Estado.Creada, \"La lista de candidatos ya esta cerrada.\");\n        require(!candidatos[id_votacion][nombre_candidato].exists, \"El candidato ya existe.\");\n        \n        Candidato memory nuevo_candidato;\n        nuevo_candidato.nombre = nombre_candidato;\n        nuevo_candidato.votos = 0;\n        nuevo_candidato.exists = true;\n        candidatos[id_votacion][nombre_candidato] = nuevo_candidato;\n\n        string[] storage candidatos_votacion = candidatos_nombres[id_votacion];\n        candidatos_votacion.push(nombre_candidato);\n    }\n\n    function cerrarLista(uint id_votacion) external {\n        \n        require(id_votacion < contadorVotaciones, \"La votacion no existe.\");\n        Votacion storage votacion = votaciones[id_votacion];\n\n        require(msg.sender == votacion.propietario, \"No eres el propietario de esta votacion.\"); \n        require(votacion.estado == Estado.Creada, \"La lista de candidatos ya esta cerrada.\");\n        require(candidatos_nombres[id_votacion].length > 0, \"Se necesita al menos un candidato para poder cerrar la lista.\");\n\n        votacion.estado = Estado.Abierta;\n    }\n\n    function cerrarEncuesta(uint id_votacion) external {\n        \n        require(id_votacion < contadorVotaciones, \"La votacion no existe.\");\n        Votacion storage votacion = votaciones[id_votacion];\n\n        require(msg.sender == votacion.propietario, \"No eres el propietario de esta votacion.\"); \n        require(votacion.estado != Estado.Creada, \"La lista de candidatos aun no esta cerrada.\");\n        require(votacion.estado != Estado.Cerrada, \"La votacion ya ha sido cerrada.\");\n\n        string[] memory lista_candidatos = candidatos_nombres[id_votacion];\n        string memory curr_ganador = lista_candidatos[0];\n        string memory curr_candidato;\n\t    uint64 max_votos = 0;\n        uint64 curr_votos;\n        for (uint16 i = 0; i < lista_candidatos.length; i++) {\n            curr_candidato = lista_candidatos[i];\n\t        curr_votos = candidatos[id_votacion][curr_candidato].votos;\n            if (curr_votos > max_votos) {\n                max_votos = curr_votos;\n                curr_ganador = curr_candidato;   \n\t        }\n        }\n\n        votacion.ganador = curr_ganador;\n\t    votacion.estado = Estado.Cerrada;\n\n    }\n    \n    // ----- Seccion de otros usuarios -----\n\n    function listaCandidatos(uint id_votacion) external view returns (string[] memory) {\n        \n        require(id_votacion < contadorVotaciones, \"La votacion no existe.\");\n\n        string[] memory list_candidatos = candidatos_nombres[id_votacion];\n        return list_candidatos;\n    }\n\n    function votar(uint id_votacion, string calldata nombre_candidato) external {\n        \n        require(id_votacion < contadorVotaciones, \"La votacion no existe.\");\n        require(votaciones[id_votacion].estado != Estado.Creada, \"La lista de candidatos aun no esta cerrada.\");\n        require(votaciones[id_votacion].estado != Estado.Cerrada, \"La votacion ya ha sido cerrada.\");\n        require(!votantes[id_votacion][msg.sender], \"Ya has votado en esta encuesta.\");\n\n        Candidato storage candidato = candidatos[id_votacion][nombre_candidato];\n        require(candidato.exists, \"El candidato no existe\");\n        candidato.votos++;\n\n        votantes[id_votacion][msg.sender] = true;\n    }\n\n    function ganador(uint id_votacion) external view returns (string memory) {\n        \n        require(id_votacion < contadorVotaciones, \"La votacion no existe.\");\n        Votacion memory votacion = votaciones[id_votacion];\n\n        require(votacion.estado == Estado.Cerrada, \"La votacion aun no ha finalizado.\");\n\n        return votacion.ganador;\n    }\n\n    function listaVotos(uint id_votacion) external view returns (uint64[] memory) {\n        \n        require(id_votacion < contadorVotaciones, \"La votacion no existe.\");\n\t\n\tVotacion memory votacion = votaciones[id_votacion];\n\trequire(votacion.estado == Estado.Cerrada, \"La votacin no ha terminado\");\n\t\n        string[] memory lista_candidatos = candidatos_nombres[id_votacion];\n        uint n_candidatos = lista_candidatos.length;\n\n        uint64[] memory lista_votos = new uint64[](n_candidatos);\n        string memory curr_candidato;\n        \n        for (uint16 i = 0; i < n_candidatos; i++) {\n            curr_candidato = lista_candidatos[i];\n            lista_votos[i] = candidatos[id_votacion][curr_candidato].votos;\n        }\n\n        return lista_votos;\n    }\n\n}\n",
  "sourcePath": "/home/ethereum/Escritorio/ethereum_adi/backend/contracts/Votaciones.sol",
  "compiler": {
    "name": "solc",
    "version": "0.5.0+commit.1d4f565a.Emscripten.clang"
  },
  "schemaVersion": "3.0.2",
  "updatedAt": "2021-01-30T17:35:24.994Z",
  "devdoc": {
    "methods": {}
  },
  "userdoc": {
    "methods": {}
  }
}